{
  "contracts/Storage.sol": {
    "Storage": {
      "abi": [
        {
          "inputs": [],
          "name": "owner",
          "outputs": [
            {
              "internalType": "address",
              "name": "",
              "type": "address"
            }
          ],
          "stateMutability": "view",
          "type": "function"
        },
        {
          "inputs": [],
          "name": "retrieve",
          "outputs": [
            {
              "internalType": "string",
              "name": "",
              "type": "string"
            }
          ],
          "stateMutability": "view",
          "type": "function"
        }
      ],
      "evm": {
        "bytecode": {
          "linkReferences": {},
          "object": "608060405234801561001057600080fd5b50610349806100206000396000f3fe608060405234801561001057600080fd5b50600436106100365760003560e01c80632e64cec11461003b5780638da5cb5b14610059575b600080fd5b610043610077565b6040516100509190610121565b60405180910390f35b61006161009a565b60405161006e9190610106565b60405180910390f35b606060405180610160016040528061013e81526020016101d661013e9139905090565b60008054906101000a900473ffffffffffffffffffffffffffffffffffffffff1681565b6100c78161015f565b82525050565b60006100d882610143565b6100e2818561014e565b93506100f2818560208601610191565b6100fb816101c4565b840191505092915050565b600060208201905061011b60008301846100be565b92915050565b6000602082019050818103600083015261013b81846100cd565b905092915050565b600081519050919050565b600082825260208201905092915050565b600061016a82610171565b9050919050565b600073ffffffffffffffffffffffffffffffffffffffff82169050919050565b60005b838110156101af578082015181840152602081019050610194565b838111156101be576000848401525b50505050565b6000601f19601f830116905091905056fe3c7374796c653e206831207b20746578742d7472616e73666f726d3a207570706572636173653b207d203c2f7374796c653e203c68313e706c7a74616b65646f776e3c2f68313e203c68323e5468697320776562736974652063616e6e6f742062652063656e736f726564206f722074616b656e20646f776e3c2f68323e203c6120687265663d2723273e52656164206d6f72653c2f613e3c62723e3c62723e203c696672616d652077696474683d2735363027206865696768743d2733313527207372633d2768747470733a2f2f7777772e796f75747562652e636f6d2f656d6265642f64517734773957675863513f6175746f706c61793d31266d7574653d312720616c6c6f773d276175746f706c617927206672616d65626f726465723d27302720616c6c6f7766756c6c73637265656e3e3c2f696672616d653ea26469706673582212201fbe7563fe59be4827933381053aeb46a117502e7495cc976581f601d1450a6064736f6c63430008010033",
          "opcodes": "PUSH1 0x80 PUSH1 0x40 MSTORE CALLVALUE DUP1 ISZERO PUSH2 0x10 JUMPI PUSH1 0x0 DUP1 REVERT JUMPDEST POP PUSH2 0x349 DUP1 PUSH2 0x20 PUSH1 0x0 CODECOPY PUSH1 0x0 RETURN INVALID PUSH1 0x80 PUSH1 0x40 MSTORE CALLVALUE DUP1 ISZERO PUSH2 0x10 JUMPI PUSH1 0x0 DUP1 REVERT JUMPDEST POP PUSH1 0x4 CALLDATASIZE LT PUSH2 0x36 JUMPI PUSH1 0x0 CALLDATALOAD PUSH1 0xE0 SHR DUP1 PUSH4 0x2E64CEC1 EQ PUSH2 0x3B JUMPI DUP1 PUSH4 0x8DA5CB5B EQ PUSH2 0x59 JUMPI JUMPDEST PUSH1 0x0 DUP1 REVERT JUMPDEST PUSH2 0x43 PUSH2 0x77 JUMP JUMPDEST PUSH1 0x40 MLOAD PUSH2 0x50 SWAP2 SWAP1 PUSH2 0x121 JUMP JUMPDEST PUSH1 0x40 MLOAD DUP1 SWAP2 SUB SWAP1 RETURN JUMPDEST PUSH2 0x61 PUSH2 0x9A JUMP JUMPDEST PUSH1 0x40 MLOAD PUSH2 0x6E SWAP2 SWAP1 PUSH2 0x106 JUMP JUMPDEST PUSH1 0x40 MLOAD DUP1 SWAP2 SUB SWAP1 RETURN JUMPDEST PUSH1 0x60 PUSH1 0x40 MLOAD DUP1 PUSH2 0x160 ADD PUSH1 0x40 MSTORE DUP1 PUSH2 0x13E DUP2 MSTORE PUSH1 0x20 ADD PUSH2 0x1D6 PUSH2 0x13E SWAP2 CODECOPY SWAP1 POP SWAP1 JUMP JUMPDEST PUSH1 0x0 DUP1 SLOAD SWAP1 PUSH2 0x100 EXP SWAP1 DIV PUSH20 0xFFFFFFFFFFFFFFFFFFFFFFFFFFFFFFFFFFFFFFFF AND DUP2 JUMP JUMPDEST PUSH2 0xC7 DUP2 PUSH2 0x15F JUMP JUMPDEST DUP3 MSTORE POP POP JUMP JUMPDEST PUSH1 0x0 PUSH2 0xD8 DUP3 PUSH2 0x143 JUMP JUMPDEST PUSH2 0xE2 DUP2 DUP6 PUSH2 0x14E JUMP JUMPDEST SWAP4 POP PUSH2 0xF2 DUP2 DUP6 PUSH1 0x20 DUP7 ADD PUSH2 0x191 JUMP JUMPDEST PUSH2 0xFB DUP2 PUSH2 0x1C4 JUMP JUMPDEST DUP5 ADD SWAP2 POP POP SWAP3 SWAP2 POP POP JUMP JUMPDEST PUSH1 0x0 PUSH1 0x20 DUP3 ADD SWAP1 POP PUSH2 0x11B PUSH1 0x0 DUP4 ADD DUP5 PUSH2 0xBE JUMP JUMPDEST SWAP3 SWAP2 POP POP JUMP JUMPDEST PUSH1 0x0 PUSH1 0x20 DUP3 ADD SWAP1 POP DUP2 DUP2 SUB PUSH1 0x0 DUP4 ADD MSTORE PUSH2 0x13B DUP2 DUP5 PUSH2 0xCD JUMP JUMPDEST SWAP1 POP SWAP3 SWAP2 POP POP JUMP JUMPDEST PUSH1 0x0 DUP2 MLOAD SWAP1 POP SWAP2 SWAP1 POP JUMP JUMPDEST PUSH1 0x0 DUP3 DUP3 MSTORE PUSH1 0x20 DUP3 ADD SWAP1 POP SWAP3 SWAP2 POP POP JUMP JUMPDEST PUSH1 0x0 PUSH2 0x16A DUP3 PUSH2 0x171 JUMP JUMPDEST SWAP1 POP SWAP2 SWAP1 POP JUMP JUMPDEST PUSH1 0x0 PUSH20 0xFFFFFFFFFFFFFFFFFFFFFFFFFFFFFFFFFFFFFFFF DUP3 AND SWAP1 POP SWAP2 SWAP1 POP JUMP JUMPDEST PUSH1 0x0 JUMPDEST DUP4 DUP2 LT ISZERO PUSH2 0x1AF JUMPI DUP1 DUP3 ADD MLOAD DUP2 DUP5 ADD MSTORE PUSH1 0x20 DUP2 ADD SWAP1 POP PUSH2 0x194 JUMP JUMPDEST DUP4 DUP2 GT ISZERO PUSH2 0x1BE JUMPI PUSH1 0x0 DUP5 DUP5 ADD MSTORE JUMPDEST POP POP POP POP JUMP JUMPDEST PUSH1 0x0 PUSH1 0x1F NOT PUSH1 0x1F DUP4 ADD AND SWAP1 POP SWAP2 SWAP1 POP JUMP INVALID EXTCODECOPY PUSH20 0x74796C653E206831207B20746578742D7472616E PUSH20 0x666F726D3A207570706572636173653B207D203C 0x2F PUSH20 0x74796C653E203C68313E706C7A74616B65646F77 PUSH15 0x3C2F68313E203C68323E5468697320 PUSH24 0x6562736974652063616E6E6F742062652063656E736F7265 PUSH5 0x206F722074 PUSH2 0x6B65 PUSH15 0x20646F776E3C2F68323E203C612068 PUSH19 0x65663D2723273E52656164206D6F72653C2F61 RETURNDATACOPY EXTCODECOPY PUSH3 0x723E3C PUSH3 0x723E20 EXTCODECOPY PUSH10 0x6672616D652077696474 PUSH9 0x3D2735363027206865 PUSH10 0x6768743D273331352720 PUSH20 0x72633D2768747470733A2F2F7777772E796F7574 PUSH22 0x62652E636F6D2F656D6265642F645177347739576758 PUSH4 0x513F6175 PUSH21 0x6F706C61793D31266D7574653D312720616C6C6F77 RETURNDATASIZE 0x27 PUSH2 0x7574 PUSH16 0x706C617927206672616D65626F726465 PUSH19 0x3D27302720616C6C6F7766756C6C7363726565 PUSH15 0x3E3C2F696672616D653EA264697066 PUSH20 0x582212201FBE7563FE59BE4827933381053AEB46 LOG1 OR POP 0x2E PUSH21 0x95CC976581F601D1450A6064736F6C634300080100 CALLER "
        },
        "methodIdentifiers": {
          "owner()": "8da5cb5b",
          "retrieve()": "2e64cec1"
        }
      }
    }
  }
}