{
  "_format": "hh-sol-artifact-1",
  "contractName": "Storage",
  "sourceName": "contracts/Storage.sol",
  "abi": [
    {
      "inputs": [],
      "name": "owner",
      "outputs": [
        {
          "internalType": "address",
          "name": "",
          "type": "address"
        }
      ],
      "stateMutability": "view",
      "type": "function"
    },
    {
      "inputs": [],
      "name": "retrieve",
      "outputs": [
        {
          "internalType": "string",
          "name": "",
          "type": "string"
        }
      ],
      "stateMutability": "view",
      "type": "function"
    }
  ],
  "bytecode": "0x608060405234801561001057600080fd5b50610349806100206000396000f3fe608060405234801561001057600080fd5b50600436106100365760003560e01c80632e64cec11461003b5780638da5cb5b14610059575b600080fd5b610043610077565b6040516100509190610121565b60405180910390f35b61006161009a565b60405161006e9190610106565b60405180910390f35b606060405180610160016040528061013e81526020016101d661013e9139905090565b60008054906101000a900473ffffffffffffffffffffffffffffffffffffffff1681565b6100c78161015f565b82525050565b60006100d882610143565b6100e2818561014e565b93506100f2818560208601610191565b6100fb816101c4565b840191505092915050565b600060208201905061011b60008301846100be565b92915050565b6000602082019050818103600083015261013b81846100cd565b905092915050565b600081519050919050565b600082825260208201905092915050565b600061016a82610171565b9050919050565b600073ffffffffffffffffffffffffffffffffffffffff82169050919050565b60005b838110156101af578082015181840152602081019050610194565b838111156101be576000848401525b50505050565b6000601f19601f830116905091905056fe3c7374796c653e206831207b20746578742d7472616e73666f726d3a207570706572636173653b207d203c2f7374796c653e203c68313e706c7a74616b65646f776e3c2f68313e203c68323e5468697320776562736974652063616e6e6f742062652063656e736f726564206f722074616b656e20646f776e3c2f68323e203c6120687265663d2723273e52656164206d6f72653c2f613e3c62723e3c62723e203c696672616d652077696474683d2735363027206865696768743d2733313527207372633d2768747470733a2f2f7777772e796f75747562652e636f6d2f656d6265642f64517734773957675863513f6175746f706c61793d31266d7574653d312720616c6c6f773d276175746f706c617927206672616d65626f726465723d27302720616c6c6f7766756c6c73637265656e3e3c2f696672616d653ea26469706673582212201fbe7563fe59be4827933381053aeb46a117502e7495cc976581f601d1450a6064736f6c63430008010033",
  "linkReferences": {},
  "deployedLinkReferences": {}
}